{
  "_format": "hh-sol-artifact-1",
  "contractName": "SimpleLottery",
  "sourceName": "contracts/simple-lottery.sol",
  "abi": [
    {
      "inputs": [],
      "stateMutability": "nonpayable",
      "type": "constructor"
    },
    {
      "inputs": [
        {
          "internalType": "uint256",
          "name": "_newFee",
          "type": "uint256"
        }
      ],
      "name": "changeContractFee",
      "outputs": [],
      "stateMutability": "nonpayable",
      "type": "function"
    },
    {
      "inputs": [
        {
          "internalType": "address",
          "name": "_newManager",
          "type": "address"
        }
      ],
      "name": "changeManager",
      "outputs": [],
      "stateMutability": "nonpayable",
      "type": "function"
    },
    {
      "inputs": [],
      "name": "contractFee",
      "outputs": [
        {
          "internalType": "uint256",
          "name": "",
          "type": "uint256"
        }
      ],
      "stateMutability": "view",
      "type": "function"
    },
    {
      "inputs": [],
      "name": "earningsWallet",
      "outputs": [
        {
          "internalType": "address payable",
          "name": "",
          "type": "address"
        }
      ],
      "stateMutability": "view",
      "type": "function"
    },
    {
      "inputs": [],
      "name": "enter",
      "outputs": [],
      "stateMutability": "payable",
      "type": "function"
    },
    {
      "inputs": [],
      "name": "getPlayers",
      "outputs": [
        {
          "internalType": "address payable[]",
          "name": "",
          "type": "address[]"
        }
      ],
      "stateMutability": "view",
      "type": "function"
    },
    {
      "inputs": [],
      "name": "manager",
      "outputs": [
        {
          "internalType": "address",
          "name": "",
          "type": "address"
        }
      ],
      "stateMutability": "view",
      "type": "function"
    },
    {
      "inputs": [],
      "name": "maxPlayers",
      "outputs": [
        {
          "internalType": "uint256",
          "name": "",
          "type": "uint256"
        }
      ],
      "stateMutability": "view",
      "type": "function"
    },
    {
      "inputs": [
        {
          "internalType": "uint256",
          "name": "",
          "type": "uint256"
        }
      ],
      "name": "players",
      "outputs": [
        {
          "internalType": "address payable",
          "name": "",
          "type": "address"
        }
      ],
      "stateMutability": "view",
      "type": "function"
    },
    {
      "inputs": [],
      "name": "prize",
      "outputs": [
        {
          "internalType": "uint256",
          "name": "",
          "type": "uint256"
        }
      ],
      "stateMutability": "view",
      "type": "function"
    },
    {
      "inputs": [],
      "name": "reset",
      "outputs": [],
      "stateMutability": "nonpayable",
      "type": "function"
    },
    {
      "inputs": [],
      "name": "winner",
      "outputs": [
        {
          "internalType": "address payable",
          "name": "",
          "type": "address"
        }
      ],
      "stateMutability": "view",
      "type": "function"
    }
  ],
  "bytecode": "0x608060405234801561001057600080fd5b50336000806101000a81548173ffffffffffffffffffffffffffffffffffffffff021916908373ffffffffffffffffffffffffffffffffffffffff1602179055507381f9e50f0f1f509eef083ff6d6fa36cab15d6bca600560006101000a81548173ffffffffffffffffffffffffffffffffffffffff021916908373ffffffffffffffffffffffffffffffffffffffff1602179055506009600281905550600a600181905550611149806100c56000396000f3fe6080604052600436106100a75760003560e01c8063d41977cd11610064578063d41977cd146101aa578063d826f88f146101d5578063dfbf53ae146101ec578063e3ac5d2614610217578063e97dcb6214610242578063f71d96cb1461024c576100a7565b80634643d0d4146100ac578063481c6a75146100d75780634c2412a2146101025780638a34bb241461012d5780638b5b9ccc14610156578063a3fbbaae14610181575b600080fd5b3480156100b857600080fd5b506100c1610289565b6040516100ce9190610b18565b60405180910390f35b3480156100e357600080fd5b506100ec6102af565b6040516100f99190610b54565b60405180910390f35b34801561010e57600080fd5b506101176102d3565b6040516101249190610b88565b60405180910390f35b34801561013957600080fd5b50610154600480360381019061014f9190610bd4565b6102d9565b005b34801561016257600080fd5b5061016b610371565b6040516101789190610cbf565b60405180910390f35b34801561018d57600080fd5b506101a860048036038101906101a39190610d0d565b6103ff565b005b3480156101b657600080fd5b506101bf6104d0565b6040516101cc9190610b88565b60405180910390f35b3480156101e157600080fd5b506101ea6104d6565b005b3480156101f857600080fd5b50610201610610565b60405161020e9190610b18565b60405180910390f35b34801561022357600080fd5b5061022c610636565b6040516102399190610b88565b60405180910390f35b61024a61063c565b005b34801561025857600080fd5b50610273600480360381019061026e9190610bd4565b61075e565b6040516102809190610b18565b60405180910390f35b600560009054906101000a900473ffffffffffffffffffffffffffffffffffffffff1681565b60008054906101000a900473ffffffffffffffffffffffffffffffffffffffff1681565b60015481565b60008054906101000a900473ffffffffffffffffffffffffffffffffffffffff1673ffffffffffffffffffffffffffffffffffffffff163373ffffffffffffffffffffffffffffffffffffffff1614610367576040517f08c379a000000000000000000000000000000000000000000000000000000000815260040161035e90610dbd565b60405180910390fd5b8060028190555050565b606060038054806020026020016040519081016040528092919081815260200182805480156103f557602002820191906000526020600020905b8160009054906101000a900473ffffffffffffffffffffffffffffffffffffffff1673ffffffffffffffffffffffffffffffffffffffff16815260200190600101908083116103ab575b5050505050905090565b60008054906101000a900473ffffffffffffffffffffffffffffffffffffffff1673ffffffffffffffffffffffffffffffffffffffff163373ffffffffffffffffffffffffffffffffffffffff161461048d576040517f08c379a000000000000000000000000000000000000000000000000000000000815260040161048490610dbd565b60405180910390fd5b806000806101000a81548173ffffffffffffffffffffffffffffffffffffffff021916908373ffffffffffffffffffffffffffffffffffffffff16021790555050565b60025481565b60008054906101000a900473ffffffffffffffffffffffffffffffffffffffff1673ffffffffffffffffffffffffffffffffffffffff163373ffffffffffffffffffffffffffffffffffffffff1614610564576040517f08c379a000000000000000000000000000000000000000000000000000000000815260040161055b90610dbd565b60405180910390fd5b600067ffffffffffffffff81111561057f5761057e610ddd565b5b6040519080825280602002602001820160405280156105ad5781602001602082028036833780820191505090505b50600390805190602001906105c3929190610a30565b506000600460006101000a81548173ffffffffffffffffffffffffffffffffffffffff021916908373ffffffffffffffffffffffffffffffffffffffff1602179055506000600681905550565b600460009054906101000a900473ffffffffffffffffffffffffffffffffffffffff1681565b60065481565b6002543411610680576040517f08c379a000000000000000000000000000000000000000000000000000000000815260040161067790610e58565b60405180910390fd5b600154600380549050106106c9576040517f08c379a00000000000000000000000000000000000000000000000000000000081526004016106c090610ec4565b60405180910390fd5b6003339080600181540180825580915050600190039060005260206000200160009091909190916101000a81548173ffffffffffffffffffffffffffffffffffffffff021916908373ffffffffffffffffffffffffffffffffffffffff160217905550346006600082825461073e9190610f13565b925050819055506001546003805490500361075c5761075b61079d565b5b565b6003818154811061076e57600080fd5b906000526020600020016000915054906101000a900473ffffffffffffffffffffffffffffffffffffffff1681565b600154600380549050146107e6576040517f08c379a00000000000000000000000000000000000000000000000000000000081526004016107dd90610f93565b60405180910390fd5b60006003805490506107f66109f6565b6108009190610fe2565b90506003818154811061081657610815611013565b5b9060005260206000200160009054906101000a900473ffffffffffffffffffffffffffffffffffffffff16600460006101000a81548173ffffffffffffffffffffffffffffffffffffffff021916908373ffffffffffffffffffffffffffffffffffffffff160217905550600a60096006546108929190611042565b61089c9190611084565b600681905550600067ffffffffffffffff8111156108bd576108bc610ddd565b5b6040519080825280602002602001820160405280156108eb5781602001602082028036833780820191505090505b5060039080519060200190610901929190610a30565b5060026001546109119190611042565b600181905550600460009054906101000a900473ffffffffffffffffffffffffffffffffffffffff1673ffffffffffffffffffffffffffffffffffffffff166108fc6006549081150290604051600060405180830381858888f19350505050158015610981573d6000803e3d6000fd5b50600560009054906101000a900473ffffffffffffffffffffffffffffffffffffffff1673ffffffffffffffffffffffffffffffffffffffff166108fc479081150290604051600060405180830381858888f193505050501580156109ea573d6000803e3d6000fd5b506109f36104d6565b50565b60004442600380549050604051602001610a12939291906110d6565b6040516020818303038152906040528051906020012060001c905090565b828054828255906000526020600020908101928215610aa9579160200282015b82811115610aa85782518260006101000a81548173ffffffffffffffffffffffffffffffffffffffff021916908373ffffffffffffffffffffffffffffffffffffffff16021790555091602001919060010190610a50565b5b509050610ab69190610aba565b5090565b5b80821115610ad3576000816000905550600101610abb565b5090565b600073ffffffffffffffffffffffffffffffffffffffff82169050919050565b6000610b0282610ad7565b9050919050565b610b1281610af7565b82525050565b6000602082019050610b2d6000830184610b09565b92915050565b6000610b3e82610ad7565b9050919050565b610b4e81610b33565b82525050565b6000602082019050610b696000830184610b45565b92915050565b6000819050919050565b610b8281610b6f565b82525050565b6000602082019050610b9d6000830184610b79565b92915050565b600080fd5b610bb181610b6f565b8114610bbc57600080fd5b50565b600081359050610bce81610ba8565b92915050565b600060208284031215610bea57610be9610ba3565b5b6000610bf884828501610bbf565b91505092915050565b600081519050919050565b600082825260208201905092915050565b6000819050602082019050919050565b610c3681610af7565b82525050565b6000610c488383610c2d565b60208301905092915050565b6000602082019050919050565b6000610c6c82610c01565b610c768185610c0c565b9350610c8183610c1d565b8060005b83811015610cb2578151610c998882610c3c565b9750610ca483610c54565b925050600181019050610c85565b5085935050505092915050565b60006020820190508181036000830152610cd98184610c61565b905092915050565b610cea81610b33565b8114610cf557600080fd5b50565b600081359050610d0781610ce1565b92915050565b600060208284031215610d2357610d22610ba3565b5b6000610d3184828501610cf8565b91505092915050565b600082825260208201905092915050565b7f4f6e6c79206d616e616765722063616e2063616c6c20746869732066756e637460008201527f696f6e0000000000000000000000000000000000000000000000000000000000602082015250565b6000610da7602383610d3a565b9150610db282610d4b565b604082019050919050565b60006020820190508181036000830152610dd681610d9a565b9050919050565b7f4e487b7100000000000000000000000000000000000000000000000000000000600052604160045260246000fd5b7f4e6f7420656e6f75676820657468657200000000000000000000000000000000600082015250565b6000610e42601083610d3a565b9150610e4d82610e0c565b602082019050919050565b60006020820190508181036000830152610e7181610e35565b9050919050565b7f4d617820706c6179657273207265616368656400000000000000000000000000600082015250565b6000610eae601383610d3a565b9150610eb982610e78565b602082019050919050565b60006020820190508181036000830152610edd81610ea1565b9050919050565b7f4e487b7100000000000000000000000000000000000000000000000000000000600052601160045260246000fd5b6000610f1e82610b6f565b9150610f2983610b6f565b9250828201905080821115610f4157610f40610ee4565b5b92915050565b7f496e76616c6964206e756d626572206f6620706c617965727300000000000000600082015250565b6000610f7d601983610d3a565b9150610f8882610f47565b602082019050919050565b60006020820190508181036000830152610fac81610f70565b9050919050565b7f4e487b7100000000000000000000000000000000000000000000000000000000600052601260045260246000fd5b6000610fed82610b6f565b9150610ff883610b6f565b92508261100857611007610fb3565b5b828206905092915050565b7f4e487b7100000000000000000000000000000000000000000000000000000000600052603260045260246000fd5b600061104d82610b6f565b915061105883610b6f565b925082820261106681610b6f565b9150828204841483151761107d5761107c610ee4565b5b5092915050565b600061108f82610b6f565b915061109a83610b6f565b9250826110aa576110a9610fb3565b5b828204905092915050565b6000819050919050565b6110d06110cb82610b6f565b6110b5565b82525050565b60006110e282866110bf565b6020820191506110f282856110bf565b60208201915061110282846110bf565b60208201915081905094935050505056fea2646970667358221220bc80a54289b2c8866cab8d4ceed19e5e5b45fb5fb075a80ceeaee2347945e94f64736f6c63430008130033",
  "linkReferences": {},
  "deployedLinkReferences": {}
}