{
  "_format": "hh-sol-artifact-1",
  "contractName": "SimpleLottery",
  "sourceName": "contracts/simple-lottery.sol",
  "abi": [
    {
      "inputs": [],
      "stateMutability": "nonpayable",
      "type": "constructor"
    },
    {
      "inputs": [
        {
          "internalType": "uint256",
          "name": "_newFee",
          "type": "uint256"
        }
      ],
      "name": "changeContractFee",
      "outputs": [],
      "stateMutability": "nonpayable",
      "type": "function"
    },
    {
      "inputs": [
        {
          "internalType": "address",
          "name": "_newManager",
          "type": "address"
        }
      ],
      "name": "changeManager",
      "outputs": [],
      "stateMutability": "nonpayable",
      "type": "function"
    },
    {
      "inputs": [],
      "name": "contractFee",
      "outputs": [
        {
          "internalType": "uint256",
          "name": "",
          "type": "uint256"
        }
      ],
      "stateMutability": "view",
      "type": "function"
    },
    {
      "inputs": [],
      "name": "earningsWallet",
      "outputs": [
        {
          "internalType": "address payable",
          "name": "",
          "type": "address"
        }
      ],
      "stateMutability": "view",
      "type": "function"
    },
    {
      "inputs": [],
      "name": "enter",
      "outputs": [],
      "stateMutability": "payable",
      "type": "function"
    },
    {
      "inputs": [],
      "name": "getMaxPlayers",
      "outputs": [
        {
          "internalType": "uint256",
          "name": "",
          "type": "uint256"
        }
      ],
      "stateMutability": "view",
      "type": "function"
    },
    {
      "inputs": [],
      "name": "getPlayers",
      "outputs": [
        {
          "internalType": "address payable[]",
          "name": "",
          "type": "address[]"
        }
      ],
      "stateMutability": "view",
      "type": "function"
    },
    {
      "inputs": [],
      "name": "manager",
      "outputs": [
        {
          "internalType": "address",
          "name": "",
          "type": "address"
        }
      ],
      "stateMutability": "view",
      "type": "function"
    },
    {
      "inputs": [],
      "name": "maxPlayers",
      "outputs": [
        {
          "internalType": "uint256",
          "name": "",
          "type": "uint256"
        }
      ],
      "stateMutability": "view",
      "type": "function"
    },
    {
      "inputs": [
        {
          "internalType": "uint256",
          "name": "",
          "type": "uint256"
        }
      ],
      "name": "players",
      "outputs": [
        {
          "internalType": "address payable",
          "name": "",
          "type": "address"
        }
      ],
      "stateMutability": "view",
      "type": "function"
    },
    {
      "inputs": [],
      "name": "prize",
      "outputs": [
        {
          "internalType": "uint256",
          "name": "",
          "type": "uint256"
        }
      ],
      "stateMutability": "view",
      "type": "function"
    },
    {
      "inputs": [],
      "name": "reset",
      "outputs": [],
      "stateMutability": "nonpayable",
      "type": "function"
    },
    {
      "inputs": [],
      "name": "winner",
      "outputs": [
        {
          "internalType": "address payable",
          "name": "",
          "type": "address"
        }
      ],
      "stateMutability": "view",
      "type": "function"
    }
  ],
  "bytecode": "0x608060405234801561001057600080fd5b50336000806101000a81548173ffffffffffffffffffffffffffffffffffffffff021916908373ffffffffffffffffffffffffffffffffffffffff1602179055507381f9e50f0f1f509eef083ff6d6fa36cab15d6bca600560006101000a81548173ffffffffffffffffffffffffffffffffffffffff021916908373ffffffffffffffffffffffffffffffffffffffff1602179055506009600281905550600a600181905550611199806100c56000396000f3fe6080604052600436106100c25760003560e01c8063a3fbbaae1161007f578063dfbf53ae11610059578063dfbf53ae14610232578063e3ac5d261461025d578063e97dcb6214610288578063f71d96cb14610292576100c2565b8063a3fbbaae146101c7578063d41977cd146101f0578063d826f88f1461021b576100c2565b80634643d0d4146100c7578063481c6a75146100f25780634c2412a21461011d5780638a34bb24146101485780638b5b9ccc146101715780638cbd9eb81461019c575b600080fd5b3480156100d357600080fd5b506100dc6102cf565b6040516100e99190610b68565b60405180910390f35b3480156100fe57600080fd5b506101076102f5565b6040516101149190610ba4565b60405180910390f35b34801561012957600080fd5b50610132610319565b60405161013f9190610bd8565b60405180910390f35b34801561015457600080fd5b5061016f600480360381019061016a9190610c24565b61031f565b005b34801561017d57600080fd5b506101866103b7565b6040516101939190610d0f565b60405180910390f35b3480156101a857600080fd5b506101b1610445565b6040516101be9190610bd8565b60405180910390f35b3480156101d357600080fd5b506101ee60048036038101906101e99190610d5d565b61044f565b005b3480156101fc57600080fd5b50610205610520565b6040516102129190610bd8565b60405180910390f35b34801561022757600080fd5b50610230610526565b005b34801561023e57600080fd5b50610247610675565b6040516102549190610b68565b60405180910390f35b34801561026957600080fd5b5061027261069b565b60405161027f9190610bd8565b60405180910390f35b6102906106a1565b005b34801561029e57600080fd5b506102b960048036038101906102b49190610c24565b6107c3565b6040516102c69190610b68565b60405180910390f35b600560009054906101000a900473ffffffffffffffffffffffffffffffffffffffff1681565b60008054906101000a900473ffffffffffffffffffffffffffffffffffffffff1681565b60015481565b60008054906101000a900473ffffffffffffffffffffffffffffffffffffffff1673ffffffffffffffffffffffffffffffffffffffff163373ffffffffffffffffffffffffffffffffffffffff16146103ad576040517f08c379a00000000000000000000000000000000000000000000000000000000081526004016103a490610e0d565b60405180910390fd5b8060028190555050565b6060600380548060200260200160405190810160405280929190818152602001828054801561043b57602002820191906000526020600020905b8160009054906101000a900473ffffffffffffffffffffffffffffffffffffffff1673ffffffffffffffffffffffffffffffffffffffff16815260200190600101908083116103f1575b5050505050905090565b6000600154905090565b60008054906101000a900473ffffffffffffffffffffffffffffffffffffffff1673ffffffffffffffffffffffffffffffffffffffff163373ffffffffffffffffffffffffffffffffffffffff16146104dd576040517f08c379a00000000000000000000000000000000000000000000000000000000081526004016104d490610e0d565b60405180910390fd5b806000806101000a81548173ffffffffffffffffffffffffffffffffffffffff021916908373ffffffffffffffffffffffffffffffffffffffff16021790555050565b60025481565b60008054906101000a900473ffffffffffffffffffffffffffffffffffffffff1673ffffffffffffffffffffffffffffffffffffffff163373ffffffffffffffffffffffffffffffffffffffff16146105b4576040517f08c379a00000000000000000000000000000000000000000000000000000000081526004016105ab90610e0d565b60405180910390fd5b600067ffffffffffffffff8111156105cf576105ce610e2d565b5b6040519080825280602002602001820160405280156105fd5781602001602082028036833780820191505090505b5060039080519060200190610613929190610a80565b506000600460006101000a81548173ffffffffffffffffffffffffffffffffffffffff021916908373ffffffffffffffffffffffffffffffffffffffff1602179055506000600681905550600260015461066d9190610e8b565b600181905550565b600460009054906101000a900473ffffffffffffffffffffffffffffffffffffffff1681565b60065481565b60025434116106e5576040517f08c379a00000000000000000000000000000000000000000000000000000000081526004016106dc90610f19565b60405180910390fd5b6001546003805490501061072e576040517f08c379a000000000000000000000000000000000000000000000000000000000815260040161072590610f85565b60405180910390fd5b6003339080600181540180825580915050600190039060005260206000200160009091909190916101000a81548173ffffffffffffffffffffffffffffffffffffffff021916908373ffffffffffffffffffffffffffffffffffffffff16021790555034600660008282546107a39190610fa5565b92505081905550600154600380549050036107c1576107c0610802565b5b565b600381815481106107d357600080fd5b906000526020600020016000915054906101000a900473ffffffffffffffffffffffffffffffffffffffff1681565b6001546003805490501461084b576040517f08c379a000000000000000000000000000000000000000000000000000000000815260040161084290611025565b60405180910390fd5b600060038054905061085b610a46565b6108659190611074565b90506003818154811061087b5761087a6110a5565b5b9060005260206000200160009054906101000a900473ffffffffffffffffffffffffffffffffffffffff16600460006101000a81548173ffffffffffffffffffffffffffffffffffffffff021916908373ffffffffffffffffffffffffffffffffffffffff160217905550600a60096006546108f79190610e8b565b61090191906110d4565b600681905550600067ffffffffffffffff81111561092257610921610e2d565b5b6040519080825280602002602001820160405280156109505781602001602082028036833780820191505090505b5060039080519060200190610966929190610a80565b50600460009054906101000a900473ffffffffffffffffffffffffffffffffffffffff1673ffffffffffffffffffffffffffffffffffffffff166108fc6006549081150290604051600060405180830381858888f193505050501580156109d1573d6000803e3d6000fd5b50600560009054906101000a900473ffffffffffffffffffffffffffffffffffffffff1673ffffffffffffffffffffffffffffffffffffffff166108fc479081150290604051600060405180830381858888f19350505050158015610a3a573d6000803e3d6000fd5b50610a43610526565b50565b60004442600380549050604051602001610a6293929190611126565b6040516020818303038152906040528051906020012060001c905090565b828054828255906000526020600020908101928215610af9579160200282015b82811115610af85782518260006101000a81548173ffffffffffffffffffffffffffffffffffffffff021916908373ffffffffffffffffffffffffffffffffffffffff16021790555091602001919060010190610aa0565b5b509050610b069190610b0a565b5090565b5b80821115610b23576000816000905550600101610b0b565b5090565b600073ffffffffffffffffffffffffffffffffffffffff82169050919050565b6000610b5282610b27565b9050919050565b610b6281610b47565b82525050565b6000602082019050610b7d6000830184610b59565b92915050565b6000610b8e82610b27565b9050919050565b610b9e81610b83565b82525050565b6000602082019050610bb96000830184610b95565b92915050565b6000819050919050565b610bd281610bbf565b82525050565b6000602082019050610bed6000830184610bc9565b92915050565b600080fd5b610c0181610bbf565b8114610c0c57600080fd5b50565b600081359050610c1e81610bf8565b92915050565b600060208284031215610c3a57610c39610bf3565b5b6000610c4884828501610c0f565b91505092915050565b600081519050919050565b600082825260208201905092915050565b6000819050602082019050919050565b610c8681610b47565b82525050565b6000610c988383610c7d565b60208301905092915050565b6000602082019050919050565b6000610cbc82610c51565b610cc68185610c5c565b9350610cd183610c6d565b8060005b83811015610d02578151610ce98882610c8c565b9750610cf483610ca4565b925050600181019050610cd5565b5085935050505092915050565b60006020820190508181036000830152610d298184610cb1565b905092915050565b610d3a81610b83565b8114610d4557600080fd5b50565b600081359050610d5781610d31565b92915050565b600060208284031215610d7357610d72610bf3565b5b6000610d8184828501610d48565b91505092915050565b600082825260208201905092915050565b7f4f6e6c79206d616e616765722063616e2063616c6c20746869732066756e637460008201527f696f6e0000000000000000000000000000000000000000000000000000000000602082015250565b6000610df7602383610d8a565b9150610e0282610d9b565b604082019050919050565b60006020820190508181036000830152610e2681610dea565b9050919050565b7f4e487b7100000000000000000000000000000000000000000000000000000000600052604160045260246000fd5b7f4e487b7100000000000000000000000000000000000000000000000000000000600052601160045260246000fd5b6000610e9682610bbf565b9150610ea183610bbf565b9250828202610eaf81610bbf565b91508282048414831517610ec657610ec5610e5c565b5b5092915050565b7f4e6f7420656e6f75676820657468657200000000000000000000000000000000600082015250565b6000610f03601083610d8a565b9150610f0e82610ecd565b602082019050919050565b60006020820190508181036000830152610f3281610ef6565b9050919050565b7f4d617820706c6179657273207265616368656400000000000000000000000000600082015250565b6000610f6f601383610d8a565b9150610f7a82610f39565b602082019050919050565b60006020820190508181036000830152610f9e81610f62565b9050919050565b6000610fb082610bbf565b9150610fbb83610bbf565b9250828201905080821115610fd357610fd2610e5c565b5b92915050565b7f496e76616c6964206e756d626572206f6620706c617965727300000000000000600082015250565b600061100f601983610d8a565b915061101a82610fd9565b602082019050919050565b6000602082019050818103600083015261103e81611002565b9050919050565b7f4e487b7100000000000000000000000000000000000000000000000000000000600052601260045260246000fd5b600061107f82610bbf565b915061108a83610bbf565b92508261109a57611099611045565b5b828206905092915050565b7f4e487b7100000000000000000000000000000000000000000000000000000000600052603260045260246000fd5b60006110df82610bbf565b91506110ea83610bbf565b9250826110fa576110f9611045565b5b828204905092915050565b6000819050919050565b61112061111b82610bbf565b611105565b82525050565b6000611132828661110f565b602082019150611142828561110f565b602082019150611152828461110f565b60208201915081905094935050505056fea26469706673582212206ed1b4751ba3e77675544591e882399216d0b3b0e21cba8f7706d74f80f3a7c364736f6c63430008130033",
  "linkReferences": {},
  "deployedLinkReferences": {}
}