{
  "_format": "hh-sol-artifact-1",
  "contractName": "SimpleLottery",
  "sourceName": "contracts/simple-lottery.sol",
  "abi": [
    {
      "inputs": [],
      "stateMutability": "nonpayable",
      "type": "constructor"
    },
    {
      "anonymous": false,
      "inputs": [
        {
          "indexed": true,
          "internalType": "address",
          "name": "sender",
          "type": "address"
        },
        {
          "indexed": false,
          "internalType": "uint256",
          "name": "value",
          "type": "uint256"
        }
      ],
      "name": "EtherReceived",
      "type": "event"
    },
    {
      "inputs": [],
      "name": "createLottery",
      "outputs": [],
      "stateMutability": "nonpayable",
      "type": "function"
    },
    {
      "inputs": [],
      "name": "enter",
      "outputs": [],
      "stateMutability": "payable",
      "type": "function"
    },
    {
      "inputs": [],
      "name": "getPlayers",
      "outputs": [
        {
          "internalType": "address payable[]",
          "name": "",
          "type": "address[]"
        }
      ],
      "stateMutability": "view",
      "type": "function"
    },
    {
      "inputs": [],
      "name": "lottery",
      "outputs": [
        {
          "internalType": "address payable",
          "name": "winner",
          "type": "address"
        },
        {
          "internalType": "uint256",
          "name": "maxPlayers",
          "type": "uint256"
        },
        {
          "internalType": "uint256",
          "name": "prize",
          "type": "uint256"
        },
        {
          "internalType": "uint256",
          "name": "contractFee",
          "type": "uint256"
        }
      ],
      "stateMutability": "view",
      "type": "function"
    },
    {
      "inputs": [],
      "name": "manager",
      "outputs": [
        {
          "internalType": "address",
          "name": "",
          "type": "address"
        }
      ],
      "stateMutability": "view",
      "type": "function"
    },
    {
      "inputs": [],
      "name": "startLottery",
      "outputs": [],
      "stateMutability": "nonpayable",
      "type": "function"
    },
    {
      "stateMutability": "payable",
      "type": "receive"
    }
  ],
  "bytecode": "0x608060405234801561001057600080fd5b50336000806101000a81548173ffffffffffffffffffffffffffffffffffffffff021916908373ffffffffffffffffffffffffffffffffffffffff160217905550610e34806100606000396000f3fe6080604052600436106100595760003560e01c8063160344e2146100b3578063481c6a75146100ca5780638b5b9ccc146100f5578063ba13a57214610120578063e97dcb621461014e578063ea660a2414610158576100ae565b366100ae573373ffffffffffffffffffffffffffffffffffffffff167f1e57e3bb474320be3d2c77138f75b7c3941292d647f5f9634e33a8e94e0e069b346040516100a4919061086f565b60405180910390a2005b600080fd5b3480156100bf57600080fd5b506100c861016f565b005b3480156100d657600080fd5b506100df61024e565b6040516100ec91906108cb565b60405180910390f35b34801561010157600080fd5b5061010a610272565b60405161011791906109b6565b60405180910390f35b34801561012c57600080fd5b50610135610303565b60405161014594939291906109e7565b60405180910390f35b610156610341565b005b34801561016457600080fd5b5061016d61045e565b005b60008054906101000a900473ffffffffffffffffffffffffffffffffffffffff1673ffffffffffffffffffffffffffffffffffffffff163373ffffffffffffffffffffffffffffffffffffffff16146101fd576040517f08c379a00000000000000000000000000000000000000000000000000000000081526004016101f490610aaf565b60405180910390fd5b6001806002015411610244576040517f08c379a000000000000000000000000000000000000000000000000000000000815260040161023b90610b1b565b60405180910390fd5b61024c61045e565b565b60008054906101000a900473ffffffffffffffffffffffffffffffffffffffff1681565b606060016000018054806020026020016040519081016040528092919081815260200182805480156102f957602002820191906000526020600020905b8160009054906101000a900473ffffffffffffffffffffffffffffffffffffffff1673ffffffffffffffffffffffffffffffffffffffff16815260200190600101908083116102af575b5050505050905090565b60018060010160009054906101000a900473ffffffffffffffffffffffffffffffffffffffff16908060020154908060030154908060040154905084565b662386f26fc10000341161038a576040517f08c379a000000000000000000000000000000000000000000000000000000000815260040161038190610b87565b60405180910390fd5b600160020154600160000180549050106103d9576040517f08c379a00000000000000000000000000000000000000000000000000000000081526004016103d090610bf3565b60405180910390fd5b6001600001339080600181540180825580915050600190039060005260206000200160009091909190916101000a81548173ffffffffffffffffffffffffffffffffffffffff021916908373ffffffffffffffffffffffffffffffffffffffff1602179055506001600201546001600001805490500361045c5761045b6105fe565b5b565b60008054906101000a900473ffffffffffffffffffffffffffffffffffffffff1673ffffffffffffffffffffffffffffffffffffffff163373ffffffffffffffffffffffffffffffffffffffff16146104ec576040517f08c379a00000000000000000000000000000000000000000000000000000000081526004016104e390610aaf565b60405180910390fd5b6040518060a00160405280600067ffffffffffffffff81111561051257610511610c13565b5b6040519080825280602002602001820160405280156105405781602001602082028036833780820191505090505b508152602001600073ffffffffffffffffffffffffffffffffffffffff16815260200160648152602001478152602001600a815250600160008201518160000190805190602001906105939291906107af565b5060208201518160010160006101000a81548173ffffffffffffffffffffffffffffffffffffffff021916908373ffffffffffffffffffffffffffffffffffffffff160217905550604082015181600201556060820151816003015560808201518160040155905050565b600060016000018054905011610649576040517f08c379a000000000000000000000000000000000000000000000000000000000815260040161064090610c8e565b60405180910390fd5b600060016000018054905061065c610772565b6106669190610cdd565b905060006001600001828154811061068157610680610d0e565b5b9060005260206000200160009054906101000a900473ffffffffffffffffffffffffffffffffffffffff1690506000600160040154476106c19190610d6c565b9050600067ffffffffffffffff8111156106de576106dd610c13565b5b60405190808252806020026020018201604052801561070c5781602001602082028036833780820191505090505b50600160000190805190602001906107259291906107af565b508173ffffffffffffffffffffffffffffffffffffffff166108fc829081150290604051600060405180830381858888f1935050505015801561076c573d6000803e3d6000fd5b50505050565b6000444260016000018054905060405160200161079193929190610dc1565b6040516020818303038152906040528051906020012060001c905090565b828054828255906000526020600020908101928215610828579160200282015b828111156108275782518260006101000a81548173ffffffffffffffffffffffffffffffffffffffff021916908373ffffffffffffffffffffffffffffffffffffffff160217905550916020019190600101906107cf565b5b5090506108359190610839565b5090565b5b8082111561085257600081600090555060010161083a565b5090565b6000819050919050565b61086981610856565b82525050565b60006020820190506108846000830184610860565b92915050565b600073ffffffffffffffffffffffffffffffffffffffff82169050919050565b60006108b58261088a565b9050919050565b6108c5816108aa565b82525050565b60006020820190506108e060008301846108bc565b92915050565b600081519050919050565b600082825260208201905092915050565b6000819050602082019050919050565b600061091d8261088a565b9050919050565b61092d81610912565b82525050565b600061093f8383610924565b60208301905092915050565b6000602082019050919050565b6000610963826108e6565b61096d81856108f1565b935061097883610902565b8060005b838110156109a95781516109908882610933565b975061099b8361094b565b92505060018101905061097c565b5085935050505092915050565b600060208201905081810360008301526109d08184610958565b905092915050565b6109e181610912565b82525050565b60006080820190506109fc60008301876109d8565b610a096020830186610860565b610a166040830185610860565b610a236060830184610860565b95945050505050565b600082825260208201905092915050565b7f4f6e6c79206d616e616765722063616e2063616c6c20746869732066756e637460008201527f696f6e0000000000000000000000000000000000000000000000000000000000602082015250565b6000610a99602383610a2c565b9150610aa482610a3d565b604082019050919050565b60006020820190508181036000830152610ac881610a8c565b9050919050565b7f4d617820706c617965727320697320746f6f206c6f7700000000000000000000600082015250565b6000610b05601683610a2c565b9150610b1082610acf565b602082019050919050565b60006020820190508181036000830152610b3481610af8565b9050919050565b7f4e6f7420656e6f75676820657468657200000000000000000000000000000000600082015250565b6000610b71601083610a2c565b9150610b7c82610b3b565b602082019050919050565b60006020820190508181036000830152610ba081610b64565b9050919050565b7f4d617820706c6179657273207265616368656400000000000000000000000000600082015250565b6000610bdd601383610a2c565b9150610be882610ba7565b602082019050919050565b60006020820190508181036000830152610c0c81610bd0565b9050919050565b7f4e487b7100000000000000000000000000000000000000000000000000000000600052604160045260246000fd5b7f4e6f20706c617965727320696e20746865206c6f747465727900000000000000600082015250565b6000610c78601983610a2c565b9150610c8382610c42565b602082019050919050565b60006020820190508181036000830152610ca781610c6b565b9050919050565b7f4e487b7100000000000000000000000000000000000000000000000000000000600052601260045260246000fd5b6000610ce882610856565b9150610cf383610856565b925082610d0357610d02610cae565b5b828206905092915050565b7f4e487b7100000000000000000000000000000000000000000000000000000000600052603260045260246000fd5b7f4e487b7100000000000000000000000000000000000000000000000000000000600052601160045260246000fd5b6000610d7782610856565b9150610d8283610856565b9250828203905081811115610d9a57610d99610d3d565b5b92915050565b6000819050919050565b610dbb610db682610856565b610da0565b82525050565b6000610dcd8286610daa565b602082019150610ddd8285610daa565b602082019150610ded8284610daa565b60208201915081905094935050505056fea26469706673582212209e472790127790c7e7c22ed11025ba0c32b66c2114accda53819faca48987c0d64736f6c63430008130033",
  "linkReferences": {},
  "deployedLinkReferences": {}
}