{
  "contractName": "SimpleLottery",
  "abi": [
    {
      "inputs": [],
      "stateMutability": "nonpayable",
      "type": "constructor"
    },
    {
      "anonymous": false,
      "inputs": [
        {
          "indexed": true,
          "internalType": "address",
          "name": "sender",
          "type": "address"
        },
        {
          "indexed": false,
          "internalType": "uint256",
          "name": "value",
          "type": "uint256"
        }
      ],
      "name": "EtherReceived",
      "type": "event"
    },
    {
      "inputs": [],
      "name": "lottery",
      "outputs": [
        {
          "internalType": "address payable",
          "name": "winner",
          "type": "address"
        },
        {
          "internalType": "uint256",
          "name": "maxPlayers",
          "type": "uint256"
        },
        {
          "internalType": "uint256",
          "name": "prize",
          "type": "uint256"
        },
        {
          "internalType": "uint256",
          "name": "contractFee",
          "type": "uint256"
        }
      ],
      "stateMutability": "view",
      "type": "function",
      "constant": true
    },
    {
      "inputs": [],
      "name": "manager",
      "outputs": [
        {
          "internalType": "address",
          "name": "",
          "type": "address"
        }
      ],
      "stateMutability": "view",
      "type": "function",
      "constant": true
    },
    {
      "stateMutability": "payable",
      "type": "receive",
      "payable": true
    },
    {
      "inputs": [],
      "name": "createLottery",
      "outputs": [],
      "stateMutability": "nonpayable",
      "type": "function"
    },
    {
      "inputs": [],
      "name": "getPlayers",
      "outputs": [
        {
          "internalType": "address payable[]",
          "name": "",
          "type": "address[]"
        }
      ],
      "stateMutability": "view",
      "type": "function",
      "constant": true
    },
    {
      "inputs": [],
      "name": "startLottery",
      "outputs": [],
      "stateMutability": "nonpayable",
      "type": "function"
    },
    {
      "inputs": [],
      "name": "enter",
      "outputs": [],
      "stateMutability": "payable",
      "type": "function",
      "payable": true
    }
  ],
  "bytecode": "0x608060405234801561000f575f80fd5b50335f806101000a81548173ffffffffffffffffffffffffffffffffffffffff021916908373ffffffffffffffffffffffffffffffffffffffff160217905550610dcf8061005c5f395ff3fe608060405260043610610058575f3560e01c8063160344e2146100b1578063481c6a75146100c75780638b5b9ccc146100f1578063ba13a5721461011b578063e97dcb6214610148578063ea660a2414610152576100ad565b366100ad573373ffffffffffffffffffffffffffffffffffffffff167f1e57e3bb474320be3d2c77138f75b7c3941292d647f5f9634e33a8e94e0e069b346040516100a3919061083d565b60405180910390a2005b5f80fd5b3480156100bc575f80fd5b506100c5610168565b005b3480156100d2575f80fd5b506100db610246565b6040516100e89190610895565b60405180910390f35b3480156100fc575f80fd5b50610105610269565b6040516101129190610976565b60405180910390f35b348015610126575f80fd5b5061012f6102f6565b60405161013f94939291906109a5565b60405180910390f35b610150610333565b005b34801561015d575f80fd5b5061016661044a565b005b5f8054906101000a900473ffffffffffffffffffffffffffffffffffffffff1673ffffffffffffffffffffffffffffffffffffffff163373ffffffffffffffffffffffffffffffffffffffff16146101f5576040517f08c379a00000000000000000000000000000000000000000000000000000000081526004016101ec90610a68565b60405180910390fd5b600180600201541161023c576040517f08c379a000000000000000000000000000000000000000000000000000000000815260040161023390610ad0565b60405180910390fd5b61024461044a565b565b5f8054906101000a900473ffffffffffffffffffffffffffffffffffffffff1681565b606060015f018054806020026020016040519081016040528092919081815260200182805480156102ec57602002820191905f5260205f20905b815f9054906101000a900473ffffffffffffffffffffffffffffffffffffffff1673ffffffffffffffffffffffffffffffffffffffff16815260200190600101908083116102a3575b5050505050905090565b6001806001015f9054906101000a900473ffffffffffffffffffffffffffffffffffffffff16908060020154908060030154908060040154905084565b662386f26fc10000341161037c576040517f08c379a000000000000000000000000000000000000000000000000000000000815260040161037390610b38565b60405180910390fd5b60016002015460015f0180549050106103ca576040517f08c379a00000000000000000000000000000000000000000000000000000000081526004016103c190610ba0565b60405180910390fd5b60015f0133908060018154018082558091505060019003905f5260205f20015f9091909190916101000a81548173ffffffffffffffffffffffffffffffffffffffff021916908373ffffffffffffffffffffffffffffffffffffffff16021790555060016002015460015f018054905003610448576104476105e4565b5b565b5f8054906101000a900473ffffffffffffffffffffffffffffffffffffffff1673ffffffffffffffffffffffffffffffffffffffff163373ffffffffffffffffffffffffffffffffffffffff16146104d7576040517f08c379a00000000000000000000000000000000000000000000000000000000081526004016104ce90610a68565b60405180910390fd5b6040518060a001604052805f67ffffffffffffffff8111156104fc576104fb610bbe565b5b60405190808252806020026020018201604052801561052a5781602001602082028036833780820191505090505b5081526020015f73ffffffffffffffffffffffffffffffffffffffff16815260200160648152602001478152602001600a81525060015f820151815f01908051906020019061057a929190610783565b506020820151816001015f6101000a81548173ffffffffffffffffffffffffffffffffffffffff021916908373ffffffffffffffffffffffffffffffffffffffff160217905550604082015181600201556060820151816003015560808201518160040155905050565b5f60015f01805490501161062d576040517f08c379a000000000000000000000000000000000000000000000000000000000815260040161062490610c35565b60405180910390fd5b5f60015f018054905061063e610749565b6106489190610c80565b90505f60015f01828154811061066157610660610cb0565b5b905f5260205f20015f9054906101000a900473ffffffffffffffffffffffffffffffffffffffff1690505f6001600401544761069d9190610d0a565b90505f67ffffffffffffffff8111156106b9576106b8610bbe565b5b6040519080825280602002602001820160405280156106e75781602001602082028036833780820191505090505b5060015f0190805190602001906106ff929190610783565b508173ffffffffffffffffffffffffffffffffffffffff166108fc8290811502906040515f60405180830381858888f19350505050158015610743573d5f803e3d5ffd5b50505050565b5f444260015f018054905060405160200161076693929190610d5d565b604051602081830303815290604052805190602001205f1c905090565b828054828255905f5260205f209081019282156107f9579160200282015b828111156107f8578251825f6101000a81548173ffffffffffffffffffffffffffffffffffffffff021916908373ffffffffffffffffffffffffffffffffffffffff160217905550916020019190600101906107a1565b5b509050610806919061080a565b5090565b5b80821115610821575f815f90555060010161080b565b5090565b5f819050919050565b61083781610825565b82525050565b5f6020820190506108505f83018461082e565b92915050565b5f73ffffffffffffffffffffffffffffffffffffffff82169050919050565b5f61087f82610856565b9050919050565b61088f81610875565b82525050565b5f6020820190506108a85f830184610886565b92915050565b5f81519050919050565b5f82825260208201905092915050565b5f819050602082019050919050565b5f6108e182610856565b9050919050565b6108f1816108d7565b82525050565b5f61090283836108e8565b60208301905092915050565b5f602082019050919050565b5f610924826108ae565b61092e81856108b8565b9350610939836108c8565b805f5b8381101561096957815161095088826108f7565b975061095b8361090e565b92505060018101905061093c565b5085935050505092915050565b5f6020820190508181035f83015261098e818461091a565b905092915050565b61099f816108d7565b82525050565b5f6080820190506109b85f830187610996565b6109c5602083018661082e565b6109d2604083018561082e565b6109df606083018461082e565b95945050505050565b5f82825260208201905092915050565b7f4f6e6c79206d616e616765722063616e2063616c6c20746869732066756e63745f8201527f696f6e0000000000000000000000000000000000000000000000000000000000602082015250565b5f610a526023836109e8565b9150610a5d826109f8565b604082019050919050565b5f6020820190508181035f830152610a7f81610a46565b9050919050565b7f4d617820706c617965727320697320746f6f206c6f77000000000000000000005f82015250565b5f610aba6016836109e8565b9150610ac582610a86565b602082019050919050565b5f6020820190508181035f830152610ae781610aae565b9050919050565b7f4e6f7420656e6f756768206574686572000000000000000000000000000000005f82015250565b5f610b226010836109e8565b9150610b2d82610aee565b602082019050919050565b5f6020820190508181035f830152610b4f81610b16565b9050919050565b7f4d617820706c61796572732072656163686564000000000000000000000000005f82015250565b5f610b8a6013836109e8565b9150610b9582610b56565b602082019050919050565b5f6020820190508181035f830152610bb781610b7e565b9050919050565b7f4e487b71000000000000000000000000000000000000000000000000000000005f52604160045260245ffd5b7f4e6f20706c617965727320696e20746865206c6f7474657279000000000000005f82015250565b5f610c1f6019836109e8565b9150610c2a82610beb565b602082019050919050565b5f6020820190508181035f830152610c4c81610c13565b9050919050565b7f4e487b71000000000000000000000000000000000000000000000000000000005f52601260045260245ffd5b5f610c8a82610825565b9150610c9583610825565b925082610ca557610ca4610c53565b5b828206905092915050565b7f4e487b71000000000000000000000000000000000000000000000000000000005f52603260045260245ffd5b7f4e487b71000000000000000000000000000000000000000000000000000000005f52601160045260245ffd5b5f610d1482610825565b9150610d1f83610825565b9250828203905081811115610d3757610d36610cdd565b5b92915050565b5f819050919050565b610d57610d5282610825565b610d3d565b82525050565b5f610d688286610d46565b602082019150610d788285610d46565b602082019150610d888284610d46565b60208201915081905094935050505056fea264697066735822122042335bb231af6c1af65964bbde1d89fe2ff175be5d3c2204f74191d8c2cc582064736f6c63430008150033",
  "immutableReferences": {},
  "source": "// SPDX-License-Identifier: MIT \npragma solidity ^0.8.0;\n\ncontract SimpleLottery {\n    address public manager;\n\n    struct Lottery {\n        address payable[] players;\n        address payable winner;\n        uint256 maxPlayers;\n        uint256 prize;\n        uint contractFee; // Percentage of the prize that goes to the contract\n    }\n\n    Lottery public lottery;\n\n    constructor() {\n        manager = payable(msg.sender);\n    }\n\n    function createLottery() public restricted {\n        lottery = Lottery({\n            players: new address payable[](0),\n            winner: payable(address(0)), // sets the winner to the zero address for each new lottery\n            maxPlayers: 100,\n            prize: address(this).balance,\n            contractFee: 10\n        });\n    }\n\n    function getPlayers() public view returns (address payable[] memory) {\n        return lottery.players;\n    }\n\n    function startLottery() public restricted {\n        require(lottery.maxPlayers > 1, \"Max players is too low\");\n        createLottery();\n    }\n\n    function enter() public payable {\n        require(msg.value > 0.01 ether, \"Not enough ether\");\n        require(lottery.players.length < lottery.maxPlayers, \"Max players reached\");\n        lottery.players.push(payable(msg.sender));\n        if (lottery.players.length == lottery.maxPlayers) {\n            pickWinner();\n        }\n    }\n\n    function pickWinner() private {\n        require(lottery.players.length > 0, \"No players in the lottery\");\n\n        uint256 index = random() % lottery.players.length;\n        address payable winner = lottery.players[index];\n        uint256 payout = address(this).balance - lottery.contractFee;\n\n        lottery.players = new address payable[](0);\n\n        // Perform the external call last\n        winner.transfer(payout);\n    }\n\n    modifier restricted() {\n        require(msg.sender == manager, \"Only manager can call this function\");\n        _;\n    }\n\n    // **This is dangerous!** Recommended to use a public RNG oracle like Chainlink VRF\n    function random() private view returns (uint256) {\n        return uint256(keccak256(abi.encodePacked(block.prevrandao, block.timestamp, lottery.players.length)));\n    }\n\n    // Fallback function to handle accidental ETH transfers\n    receive() external payable {\n        // You can log the event or perform any other necessary actions\n        emit EtherReceived(msg.sender, msg.value);\n    }\n\n    // Event to log accidental ETH transfers\n    event EtherReceived(address indexed sender, uint256 value);\n\n}\n\n",
  "sourcePath": "/Users/ramijames/_CODE/simple-lottery/contracts/simple-lottery.sol",
  "compiler": {
    "name": "solc",
    "version": "0.8.21+commit.d9974bed.Emscripten.clang"
  },
  "schemaVersion": "3.4.16",
  "updatedAt": "2023-12-15T20:36:54.463Z",
  "networkType": "ethereum",
  "devdoc": {
    "kind": "dev",
    "methods": {},
    "version": 1
  },
  "userdoc": {
    "kind": "user",
    "methods": {},
    "version": 1
  }
}