{
  "contractName": "SimpleLottery",
  "abi": [
    {
      "inputs": [],
      "stateMutability": "nonpayable",
      "type": "constructor"
    },
    {
      "anonymous": false,
      "inputs": [
        {
          "indexed": true,
          "internalType": "address",
          "name": "sender",
          "type": "address"
        },
        {
          "indexed": false,
          "internalType": "uint256",
          "name": "value",
          "type": "uint256"
        }
      ],
      "name": "EtherReceived",
      "type": "event"
    },
    {
      "inputs": [],
      "name": "lottery",
      "outputs": [
        {
          "internalType": "address payable",
          "name": "winner",
          "type": "address"
        },
        {
          "internalType": "uint256",
          "name": "maxPlayers",
          "type": "uint256"
        },
        {
          "internalType": "uint256",
          "name": "prize",
          "type": "uint256"
        },
        {
          "internalType": "uint256",
          "name": "contractFee",
          "type": "uint256"
        }
      ],
      "stateMutability": "view",
      "type": "function",
      "constant": true
    },
    {
      "inputs": [],
      "name": "manager",
      "outputs": [
        {
          "internalType": "address",
          "name": "",
          "type": "address"
        }
      ],
      "stateMutability": "view",
      "type": "function",
      "constant": true
    },
    {
      "stateMutability": "payable",
      "type": "receive",
      "payable": true
    },
    {
      "inputs": [],
      "name": "createLottery",
      "outputs": [],
      "stateMutability": "nonpayable",
      "type": "function"
    },
    {
      "inputs": [],
      "name": "startLottery",
      "outputs": [],
      "stateMutability": "nonpayable",
      "type": "function"
    },
    {
      "inputs": [],
      "name": "enter",
      "outputs": [],
      "stateMutability": "payable",
      "type": "function",
      "payable": true
    }
  ],
  "bytecode": "0x608060405234801561000f575f80fd5b50335f806101000a81548173ffffffffffffffffffffffffffffffffffffffff021916908373ffffffffffffffffffffffffffffffffffffffff160217905550610c368061005c5f395ff3fe60806040526004361061004d575f3560e01c8063160344e2146100a6578063481c6a75146100bc578063ba13a572146100e6578063e97dcb6214610113578063ea660a241461011d576100a2565b366100a2573373ffffffffffffffffffffffffffffffffffffffff167f1e57e3bb474320be3d2c77138f75b7c3941292d647f5f9634e33a8e94e0e069b34604051610098919061077b565b60405180910390a2005b5f80fd5b3480156100b1575f80fd5b506100ba610133565b005b3480156100c7575f80fd5b506100d0610211565b6040516100dd91906107d3565b60405180910390f35b3480156100f1575f80fd5b506100fa610234565b60405161010a949392919061080c565b60405180910390f35b61011b610271565b005b348015610128575f80fd5b50610131610388565b005b5f8054906101000a900473ffffffffffffffffffffffffffffffffffffffff1673ffffffffffffffffffffffffffffffffffffffff163373ffffffffffffffffffffffffffffffffffffffff16146101c0576040517f08c379a00000000000000000000000000000000000000000000000000000000081526004016101b7906108cf565b60405180910390fd5b6001806002015411610207576040517f08c379a00000000000000000000000000000000000000000000000000000000081526004016101fe90610937565b60405180910390fd5b61020f610388565b565b5f8054906101000a900473ffffffffffffffffffffffffffffffffffffffff1681565b6001806001015f9054906101000a900473ffffffffffffffffffffffffffffffffffffffff16908060020154908060030154908060040154905084565b662386f26fc1000034116102ba576040517f08c379a00000000000000000000000000000000000000000000000000000000081526004016102b19061099f565b60405180910390fd5b60016002015460015f018054905010610308576040517f08c379a00000000000000000000000000000000000000000000000000000000081526004016102ff90610a07565b60405180910390fd5b60015f0133908060018154018082558091505060019003905f5260205f20015f9091909190916101000a81548173ffffffffffffffffffffffffffffffffffffffff021916908373ffffffffffffffffffffffffffffffffffffffff16021790555060016002015460015f01805490500361038657610385610522565b5b565b5f8054906101000a900473ffffffffffffffffffffffffffffffffffffffff1673ffffffffffffffffffffffffffffffffffffffff163373ffffffffffffffffffffffffffffffffffffffff1614610415576040517f08c379a000000000000000000000000000000000000000000000000000000000815260040161040c906108cf565b60405180910390fd5b6040518060a001604052805f67ffffffffffffffff81111561043a57610439610a25565b5b6040519080825280602002602001820160405280156104685781602001602082028036833780820191505090505b5081526020015f73ffffffffffffffffffffffffffffffffffffffff16815260200160648152602001478152602001600a81525060015f820151815f0190805190602001906104b89291906106c1565b506020820151816001015f6101000a81548173ffffffffffffffffffffffffffffffffffffffff021916908373ffffffffffffffffffffffffffffffffffffffff160217905550604082015181600201556060820151816003015560808201518160040155905050565b5f60015f01805490501161056b576040517f08c379a000000000000000000000000000000000000000000000000000000000815260040161056290610a9c565b60405180910390fd5b5f60015f018054905061057c610687565b6105869190610ae7565b90505f60015f01828154811061059f5761059e610b17565b5b905f5260205f20015f9054906101000a900473ffffffffffffffffffffffffffffffffffffffff1690505f600160040154476105db9190610b71565b90505f67ffffffffffffffff8111156105f7576105f6610a25565b5b6040519080825280602002602001820160405280156106255781602001602082028036833780820191505090505b5060015f01908051906020019061063d9291906106c1565b508173ffffffffffffffffffffffffffffffffffffffff166108fc8290811502906040515f60405180830381858888f19350505050158015610681573d5f803e3d5ffd5b50505050565b5f444260015f01805490506040516020016106a493929190610bc4565b604051602081830303815290604052805190602001205f1c905090565b828054828255905f5260205f20908101928215610737579160200282015b82811115610736578251825f6101000a81548173ffffffffffffffffffffffffffffffffffffffff021916908373ffffffffffffffffffffffffffffffffffffffff160217905550916020019190600101906106df565b5b5090506107449190610748565b5090565b5b8082111561075f575f815f905550600101610749565b5090565b5f819050919050565b61077581610763565b82525050565b5f60208201905061078e5f83018461076c565b92915050565b5f73ffffffffffffffffffffffffffffffffffffffff82169050919050565b5f6107bd82610794565b9050919050565b6107cd816107b3565b82525050565b5f6020820190506107e65f8301846107c4565b92915050565b5f6107f682610794565b9050919050565b610806816107ec565b82525050565b5f60808201905061081f5f8301876107fd565b61082c602083018661076c565b610839604083018561076c565b610846606083018461076c565b95945050505050565b5f82825260208201905092915050565b7f4f6e6c79206d616e616765722063616e2063616c6c20746869732066756e63745f8201527f696f6e0000000000000000000000000000000000000000000000000000000000602082015250565b5f6108b960238361084f565b91506108c48261085f565b604082019050919050565b5f6020820190508181035f8301526108e6816108ad565b9050919050565b7f4d617820706c617965727320697320746f6f206c6f77000000000000000000005f82015250565b5f61092160168361084f565b915061092c826108ed565b602082019050919050565b5f6020820190508181035f83015261094e81610915565b9050919050565b7f4e6f7420656e6f756768206574686572000000000000000000000000000000005f82015250565b5f61098960108361084f565b915061099482610955565b602082019050919050565b5f6020820190508181035f8301526109b68161097d565b9050919050565b7f4d617820706c61796572732072656163686564000000000000000000000000005f82015250565b5f6109f160138361084f565b91506109fc826109bd565b602082019050919050565b5f6020820190508181035f830152610a1e816109e5565b9050919050565b7f4e487b71000000000000000000000000000000000000000000000000000000005f52604160045260245ffd5b7f4e6f20706c617965727320696e20746865206c6f7474657279000000000000005f82015250565b5f610a8660198361084f565b9150610a9182610a52565b602082019050919050565b5f6020820190508181035f830152610ab381610a7a565b9050919050565b7f4e487b71000000000000000000000000000000000000000000000000000000005f52601260045260245ffd5b5f610af182610763565b9150610afc83610763565b925082610b0c57610b0b610aba565b5b828206905092915050565b7f4e487b71000000000000000000000000000000000000000000000000000000005f52603260045260245ffd5b7f4e487b71000000000000000000000000000000000000000000000000000000005f52601160045260245ffd5b5f610b7b82610763565b9150610b8683610763565b9250828203905081811115610b9e57610b9d610b44565b5b92915050565b5f819050919050565b610bbe610bb982610763565b610ba4565b82525050565b5f610bcf8286610bad565b602082019150610bdf8285610bad565b602082019150610bef8284610bad565b60208201915081905094935050505056fea26469706673582212209286990b99b6961bb1aab750ff91a4a063402c822cd8a17eb2ce577980be9c1064736f6c63430008150033",
  "immutableReferences": {},
  "source": "// SPDX-License-Identifier: MIT \npragma solidity ^0.8.0;\n\ncontract SimpleLottery {\n    address public manager;\n\n    struct Lottery {\n        address payable[] players;\n        address payable winner;\n        uint256 maxPlayers;\n        uint256 prize;\n        uint contractFee; // Percentage of the prize that goes to the contract\n    }\n\n    Lottery public lottery;\n\n    constructor() {\n        manager = payable(msg.sender);\n    }\n\n    function createLottery() public restricted {\n        lottery = Lottery({\n            players: new address payable[](0),\n            winner: payable(address(0)), // sets the winner to the zero address for each new lottery\n            maxPlayers: 100,\n            prize: address(this).balance,\n            contractFee: 10\n        });\n    }\n\n    function startLottery() public restricted {\n        require(lottery.maxPlayers > 1, \"Max players is too low\");\n        createLottery();\n    }\n\n    function enter() public payable {\n        require(msg.value > 0.01 ether, \"Not enough ether\");\n        require(lottery.players.length < lottery.maxPlayers, \"Max players reached\");\n        lottery.players.push(payable(msg.sender));\n        if (lottery.players.length == lottery.maxPlayers) {\n            pickWinner();\n        }\n    }\n\n    function pickWinner() private {\n        require(lottery.players.length > 0, \"No players in the lottery\");\n\n        uint256 index = random() % lottery.players.length;\n        address payable winner = lottery.players[index];\n        uint256 payout = address(this).balance - lottery.contractFee;\n\n        lottery.players = new address payable[](0);\n\n        // Perform the external call last\n        winner.transfer(payout);\n    }\n\n    modifier restricted() {\n        require(msg.sender == manager, \"Only manager can call this function\");\n        _;\n    }\n\n    // **This is dangerous!** Recommended to use a public RNG oracle like Chainlink VRF\n    function random() private view returns (uint256) {\n        return uint256(keccak256(abi.encodePacked(block.prevrandao, block.timestamp, lottery.players.length)));\n    }\n\n    // Fallback function to handle accidental ETH transfers\n    receive() external payable {\n        // You can log the event or perform any other necessary actions\n        emit EtherReceived(msg.sender, msg.value);\n    }\n\n    // Event to log accidental ETH transfers\n    event EtherReceived(address indexed sender, uint256 value);\n\n}\n\n",
  "sourcePath": "/Users/ramijames/_CODE/simple-lottery/contracts/simple-lottery.sol",
  "compiler": {
    "name": "solc",
    "version": "0.8.21+commit.d9974bed.Emscripten.clang"
  },
  "schemaVersion": "3.4.16",
  "updatedAt": "2023-12-15T20:17:07.162Z",
  "networkType": "ethereum",
  "devdoc": {
    "kind": "dev",
    "methods": {},
    "version": 1
  },
  "userdoc": {
    "kind": "user",
    "methods": {},
    "version": 1
  }
}